:020000040800F2
:1000000050060020D500000875150008DD14000812
:1000100000000000000000000000000000000000E0
:10002000000000000000000000000000211800088F
:100030000000000000000000BD15000823180008A3
:100040000501000805010008050100080501000878
:100050000501000805010008050100080501000868
:100060000000000005010008050100080501000866
:100070000501000805010008000000000501000856
:100080000000000000000000000000000000000070
:100090000501000800000000000000000501000844
:1000A0000000000005010008000000000000000042
:1000B0000501000805010008000000000000000024
:1000C0000348854600F09AF800480047251F0008BD
:1000D000500600200C4880F308880C480168090E7F
:1000E0000B4A914205D10B480B4901600B480C4962
:1000F00001600C4880470C480047FEE7FEE7FEE73A
:10010000FEE7FEE7FEE700005006002004000000C6
:100110001F000000341002400100000000000140F8
:1001200000000000CD180008C100000830B50B46E3
:10013000014600202022012409E00D46D5409D42C1
:1001400005D31D469540491B254695404019154647
:10015000521E002DF1DC30BDF0B51FB40646002064
:1001600082B005464024019100901BE0019922468F
:100170000F46304600F030F8049A059B801A9941EA
:1001800010D310461946224600F016F8361A8F4151
:100190000197224601200021009F00F00DF8381839
:1001A0004D4100902046641E0028DFDC019B009832
:1001B0002946324607B0F0BD10B5202A04DB0146BF
:1001C000203A9140002010BD914020239C1A034604
:1001D000E3401943904010BD10B5202A04DB0846C7
:1001E000203AD040002110BD0B46D340D0402024FF
:1001F000A21A91400843194610BD0000064C012583
:10020000064E05E0E36807CC2B430C3C98471034BE
:10021000B442F7D3FFF758FFDC210008FC210008A7
:1002200070B58D180478401CA207920F01D1027896
:10023000401C231106D10378401C03E006780E70A1
:10024000401C491C521EF9D1002B15D002780C26F7
:100250008A1A3440401C0C2C03D0A401121B9B1C96
:1002600008E004782402121B401CF8E714780C7094
:10027000491C521C5B1EF9D5A942D3D3002070BD86
:1002800031B500F0BDF8044600F0BAF80099001B43
:100290008842F9D338BD0000F8B50023012498E066
:1002A00027469F403A4070D04D68022D01D0122D54
:1002B00014D1DD08AD002D1800952D6A5E07AC46FF
:1002C000F50E0F26AE46AE406546B543AC460E6908
:1002D0007546AE4065462E43009D2E624D68012D49
:1002E00005D0022D03D0112D01D0122D16D1856815
:1002F0000326AC465D00AE46AE406546B543AC460F
:10030000CE687546AE4065462E43866046680D79D8
:10031000BE43ED06ED0F9D403543456006685F0026
:100320000325BD40AE46AE430D79B446AE07B60FC9
:10033000BE4065462E430660C6687546AE438D686E
:10034000BD403543C5604D68ED0041D5244D6E6B11
:1003500026436E639E08234DB6007519AC46AD6802
:100360009E07360F0F27B740BD4305273F07B8420A
:1003700001D100270BE01C4FB84201D1012706E054
:100380001A4FB84202D1022701E021E00627B74008
:100390002F436546AF60164D2E684F689643FF03A6
:1003A00000D516432E606E684F689643BF0300D594
:1003B00016436E60AE684F689643FF0200D5164341
:1003C000AE60EE684F689643BF0200D51643EE60FC
:1003D0005B1C0A681546DD4000D061E7F8BD0000EF
:1003E00000100240000001400004005000080050CE
:1003F00000040140002A01D081617047816270478A
:100400000148006870470000B801002002480168F8
:10041000491C016070470000B801002010B5064873
:100420000168402211430160002000F007F800F04D
:1004300019F8002010BD00000020024010B504464D
:1004400007487D21C9000068FFF770FE00F06EFFCD
:1004500000222146501E00F021F8002010BD0000AF
:100460000000002010B50C48416B0122114341638C
:10047000816B02041143816300221146501F00F07A
:100480000DF800221146901E00F008F800221146D7
:10049000501E00F003F810BD0010024010B501F02E
:1004A0006BF810BD024801680215114301607047E6
:1004B0000070004004480168012211430160016896
:1004C0000214114301607047007000400248016847
:1004D00042151143016070470070004005480168F3
:1004E00002221143016004480169042211430161A1
:1004F00030BF70470070004000ED00E0F8B53A49A9
:10050000034601240020E403364D374A4031022BD4
:1005100031D0042B49D0082B56D0202B0BD10B699E
:10052000096903252D0429406700A600B94203D1BB
:1005300099052CE02046F8BDB14203D19907FAD5C0
:100540002A48F8BDA942FCD111688903F9D5116880
:1005500003200005014001200005091A09D0091AED
:1005600005D0814201D12248F8BD2248F8BD224879
:10057000F8BD2248F8BDCB680C2633400AD0082BC2
:100580000BD0042B0ED00C2BF4D10969890500295E
:10059000D0DBF8BD00F096F9F8BD11684907FBD52E
:1005A0002846F8BD00F0AEF9F8BDCB680326B602C8
:1005B0003340EFD00127FF02BB42EED07A109342C6
:1005C000F0D0B342E1D0F8BDC96803231B03194042
:1005D000E0D0012464036310A142DED09942E1D04F
:1005E000F8BD00000024F4000010024088900000D4
:1005F00020A1070000093D0040420F0080841E003A
:10060000F8B5044600784F4D800672D54D4E002750
:10061000403EB06BC00004D4B06BA9050843B06382
:10062000012749480168C90511D4016882151143A1
:100630000160FFF7E5FE009005E0FFF7E1FE00999D
:10064000401A642837D840480068C005F5D532689C
:100650000321090560680A400140914208D08103E6
:10066000890F032904D13168890301D50120F8BD20
:100670002A69032109040A4022D0084090421FD071
:10068000207880061CD528692A6988430121C9047D
:100690000A432A612A698A432A612861C0050FD565
:1006A000FFF7AEFE009008E0FFF7AAFE0099411A9E
:1006B0002648814201D90320F8BD28698005F3D579
:1006C00061688803800F032805D1326800058243E2
:1006D00001400A4332602869032261681204114014
:1006E00008432861002F04D0B16B0120000781432B
:1006F000B1632078800705D5E8680C218843A1689C
:100700000843E8602078400706D5E868032189029D
:100710008843E1680843E8602078000706D5E86868
:1007200003210903884321690843E8602078000613
:1007300006D5E86803218904884361690843E860B5
:100740000020F8BD401002400070004088130000F7
:10075000F8B5054653480E460068C007C00FB042C2
:100760000AD25048016849084900314301600068D5
:10077000C007C00FB0426FD128784B4C800705D519
:10078000E068F0218843A9680843E0602878C00742
:1007900052D06868022817D0032818D02168012891
:1007A00018D08905002957DAE168890889000143D2
:1007B000E160FFF725FE69680746022912D0032988
:1007C0001CD0012926D033E021688903EAE721689B
:1007D0008901E7E74907E5E7FFF712FEC11B334848
:1007E000814223D8E0680007800F0228F4D123E07B
:1007F000FFF706FEC11B2D48814217D8E0680007AD
:10080000800F0328F4D117E0FFF7FAFDC11B27483A
:1008100081420BD8E0680007800F0128F4D10BE07B
:10082000FFF7EEFDC11B2148814201D90320F8BD2D
:10083000E0680007800FF3D11A480168C907C90FA3
:10084000B1420BD901684908490031430160006891
:10085000C007C00FB04201D00120F8BD2878400782
:1008600006D5E068072109028843E9680843E0608B
:100870002878000707D5E0680721C902884329695D
:10088000C9000843E06000F03DF8E168084A090645
:10089000090F515CC840074908600020FFF7CEFDF2
:1008A0000020F8BD00200240001002408813000024
:1008B000BA210008000000200148006870470000CD
:1008C00000000020044805490068C968044A490539
:1008D000490F515CC84070470000002000100240E2
:1008E000D3210008044805490068C968044A8904FE
:1008F000490F515CC84070470000002000100240C2
:10090000D321000810B5184AD1680C2008400428EB
:100910000BD0082810D00C2810D050680004410FCC
:100920000120C003491C884010BD1068C00601D5D5
:100930000E4810BD0E4810BD0E4810BD88020E4B6B
:10094000000F185C0902D368890F491CDB0301D52D
:10095000084A05E01268D20601D5044A00E0044ABC
:100960005043FFF7E3FB10BD0010024000093D00BB
:100970000024F40000127A00CA210008F8B50446E9
:100980000078F24DC0074AD0E8680007800F0228BF
:1009900007D0E8680007800F032809D1E868C00382
:1009A00006D5286880033AD56068002873D036E001
:1009B000012062680004824203D129680143296052
:1009C00011E0052301211B0489049A422A6802D1FF
:1009D0000A432A60F1E782432A602A6802400092B3
:1009E000286888432860606800280CD0FFF708FD5D
:1009F000064604E0FFF704FD801B64287ED82868C3
:100A00008003F7D50BE0FFF7FBFC064604E0FFF799
:100A1000F7FC801B6428F1D828688003F7D420787D
:100A2000800741D5E8681F270007800F3F02012893
:100A300007D0E8680007800F032809D1E868C003E1
:100A400006D42868400717D5E068012823D113E0B1
:100A5000E068002817D029680922914301432960E2
:100A6000FFF7CEFC064604E0FFF7CAFC801B022815
:100A7000C4D828684007F7D568682169B8430902D7
:100A80000843686010E02868400840002860FFF7CD
:100A9000B7FC064605E090E0FFF7B2FC801B022899
:100AA000ACD828684007F7D42078C00676D5E86827
:100AB000A74E0007800F0BD0A06900285DD02868E2
:100AC000FF21013108432860FFF79AFC074644E004
:100AD0002868800502D5A06900286ED0206A696860
:100AE0003140884212D900F06BFD0028AED1686811
:100AF000216AB04308436860686800E0BBE0000218
:100B0000217F000A0906084368600FE06968B14365
:100B1000014369606868217F0002000A09060843F2
:100B20006860206A00F04CFD00288FD1206A410BDC
:100B30000120C003491C8840E96809060A0F85495D
:100B4000895CC840844908600020FFF777FC25E0F5
:100B5000FFF756FCC01B02288AD828688005F7D505
:100B60006868216AB043084368606868217F0002B2
:100B7000000A09060843686010E02968FF20013078
:100B800081432960FFF73CFC064604E0FFF738FC90
:100B9000801B02286FD828688005F7D420786F4E14
:100BA000000723D560690028306910D0012108436F
:100BB0003061FFF725FC074605E0C5E0FFF720FCA4
:100BC000C01B022857D830698007F7D50EE04008CF
:100BD00040003061FFF714FC074604E0FFF710FC0B
:100BE000C01B022847D830698007F7D42078400717
:100BF00062D5A86B0027C00005D4A86B01210907A6
:100C00000843A863012756480168C90511D4016843
:100C1000821511430160FFF7F3FB009005E0FFF739
:100C2000EFFB0099401A642825D84D480068C0059C
:100C3000F5D5FF20A2680130824203D1316901431A
:100C4000316111E001218902002A07D005231B022E
:100C50009A4203D132690A433261EFE73269824333
:100C60003261306988433061A06800280FD0FFF7F7
:100C7000C7FB009007E060E0FFF7C2FB0099411A54
:100C80003848814259D830698005F5D50DE0FFF725
:100C9000B7FB009006E0FFF7B3FB0099411A31481B
:100CA00081424AD830698005F5D4002F04D0A96B61
:100CB000012000078143A963606A002842D0E968E7
:100CC0000907890F03293FD0012636060228286824
:100CD00005D0B0432860FFF793FB04462FE0B043F4
:100CE0002860FFF78DFB074604E0FFF789FBC01B78
:100CF000022822D828688001F7D4E16AA06AEA684D
:100D00000843216BFD231B049A4311430843E86009
:100D1000286830432860FFF773FB044604E0FFF7C0
:100D20006FFB001B022808D828688001F7D509E06E
:100D3000FFF766FB001B022801D90320F8BD2868D5
:100D40008001F5D40020F8BD0120F8BD001002405C
:100D500000E00000BA21000800000020401002401E
:100D60000070004088130000F8B5054604462035A1
:100D70002878012819D00120287002206870216885
:100D8000CA20486221685320486220688168012295
:100D900092029143816020688168120191438160D1
:100DA000FFF72EFB064600270FE00220F8BDFFF7F5
:100DB00027FB811B7D20C000814206D92168FF20CE
:100DC0004862032068702F70F8BD2068C068400733
:100DD000EDD52168FF204862012068702F70002047
:100DE000F8BDF7B5054604462035287882B00128BD
:100DF00014D001202870022068702168CA2048623F
:100E00002168532048622068806800264005FF273B
:100E1000002812DAFFF7F4FA00900AE0022005B089
:100E2000F0BDFFF7EDFA0099411A7D20C000814224
:100E300015D82068C0684007F3D420688168012273
:100E4000920291438160FFF7DBFA00900DE0FFF71B
:100E5000D7FA0099411A7D20C000814205D9206847
:100E60004762032068702E70D9E72068C068400789
:100E7000EDD520688168C908C90081602068816853
:100E8000049A114381602168039848612068816851
:100E9000012292021143816020684762012068703C
:100EA0002E700020BBE710B500680B464068C021DB
:100EB000C94301400002000ECC04D870E40E5C70FF
:100EC0008C06A40E0904490F9C701970002A0AD1DF
:100ED00000F0AEFBD870587800F0AAFB58709878F4
:100EE00000F0A6FB9870002010BD000070B5040053
:100EF00005D0254620356878002802D006E001207C
:100F000070BD00202870204600F042F80220687072
:100F10002168CA204862216853204862204600F0B8
:100F20009AFBFF210028206803D0416204206870EA
:100F3000E5E78268154B1A40826022689068636812
:100F4000A669184323693343184390602268E06818
:100F500010612068026923891B041A43026120681A
:100F6000C26880239A43C2602068C26C92089200D3
:100F7000C264E269606902432068C36C1A43C264B8
:100F80002068416201206870002070BDBFFF8FFFA4
:100F900000680549884205D104480169012292048C
:100FA00011430161704700000028004040100240DA
:100FB000FEB506460446203630780B46012841D05F
:100FC000012030700220707020681D4600272035F7
:100FD0008068002A38D0400654D5187800F028FBE5
:100FE000287800F025FB1978987809040843597887
:100FF000DA780902120411430843297809060843E4
:10100000D9690843596905460D43996958680843E9
:1010100000902168CA204862216853204862586ABB
:10102000C11F2068F9392FD08168012252029143F3
:10103000816020688168120191438160FFF7E0F9C7
:10104000019056E00220FEBD400600D4DF70187803
:1010500000F0F6FA0204587800F0F2FA00020243B7
:10106000987800F0EDFA0243D8780004024328781B
:1010700000F0E6FA00060243D869024358690243C9
:101080001546C2E7DF70ABE78268FF2101318A4372
:101090008260206881680122120391438160FFF71A
:1010A000AFF9019008E0FFF7ABF901460198091A82
:1010B0007D20C000814215D82068C068C007F2D0EA
:1010C0002068C56121680098486420688168FF2213
:1010D00001321BE0FFF794F90199411A7D20C0000D
:1010E000814206D92168FF20486203207070377062
:1010F000FEBD2068C0688007ECD5206805622168C5
:10110000009888642068816801225202114381603E
:101110002168FF2048620120707037700020FEBDFA
:10112000F8B505460446203528780B46012815D029
:1011300001202870022068705878002A10D000F032
:1011400077FA987800F074FAD8789E78000406430D
:101150005878197800024903084316E00220F8BDC8
:10116000C10603D5EF2108400A305870D87800F046
:1011700067FA0604587800F063FA0002064398788C
:1011800000F05EFA06431878400306432168CA203F
:101190004862216853204862204600F05CFA00272C
:1011A000002811D110480640206846602068C168B8
:1011B00080229143C1602068806880060CD420465C
:1011C00000F08CF8002807D02168FF204862042036
:1011D00068702F700120F8BD2168FF20486201204F
:1011E00068702F700020F8BD3FFFFF00F8B506467D
:1011F0000446203630780D4601280ED0012030708C
:1012000002207070206800278068002A07D04006FE
:101210001AD5287800F00CFA17E00220F8BD400635
:1012200000D4EF70287800F00BFA0204687800F020
:1012300007FA00020243A87800F002FA0243E878B5
:101240000004024300920BE0EF702978A8780904AB
:1012500008436978EA7809021204114308430090B0
:101260002168CA204862216853204862204600F065
:10127000F2F900281FD11849009808402168086039
:101280002068816801229204914381602969E8689D
:10129000084321688A68104388602068C1688022FA
:1012A0009143C1602068806880060CD4204600F01D
:1012B00015F8002807D02168FF20486204207070CC
:1012C00037700120F8BD2168FF204862012070704E
:1012D00037700020F8BD00007F7F7F0070B50446A6
:1012E0000068C168A0229143C160FFF789F87D269C
:1012F0000546F60006E0FFF783F8401BB04201D92F
:10130000032070BD2068C0688006F4D5002070BD41
:10131000042204490428086902D0904308617047F8
:101320001043FBE700E000E070470000094910B5FA
:10133000401E884201D9012010BD074C6061032185
:10134000081F00F019F90020A0610720206100208B
:1013500010BD0000FFFFFF0000E000E010B5FFF748
:10136000E3FF10BD70B5040005D025466035687AEE
:10137000002802D006E0012070BD0020287220461F
:1013800000F026F8242068722068016849084900A6
:101390000160606A002802D0204600F0C1FA2046B1
:1013A00000F054FB0128E7D0206841680922D202EE
:1013B00091434160206881682A22914381602068BE
:1013C0000168012211430160204600F00FFB70BD4F
:1013D00000B500680D4985B0884214D10C48816B76
:1013E0000122520411438163C01300900220019036
:1013F00000200290032003900420049005206946F9
:101400000007FEF749FF05B000BD000000440040A2
:1014100000100240FFB5064604466036707A83B07D
:101420000D46202858D1002D0CD00598002809D051
:101430000120A1680003814207D12069002804D15E
:10144000E80702D0012007B0F0BD307A012843D070
:10145000012030720020E06621207072FEF7D0FF7C
:10146000019027464037059838820598788218E021
:10147000788A401E788206980090002280212046BB
:10148000019B00F0DFFB002818D10120A1680003B8
:10149000814202D12069002812D021682878886210
:1014A0006D1C788A0028E3D1069800900022402124
:1014B0002046019B00F0C6FB002808D00320C2E7AD
:1014C00028882168C005C00D8862AD1CE9E720208E
:1014D000707200203072B6E70220B4E7FEE7000029
:1014E00030B5144887B0C26A04210A43C262C26A96
:1014F0000A400592C16A01242143C162C16A2140A8
:101500000591C26A02210A43C262C06A0A4D0840BC
:101510000590002208212846FEF76CFF00210820D4
:10152000029103910090019469462846FEF7B4FEAB
:1015300007B030BD001002400004005010B50C4848
:101540000A4901604B218901416000218160C1602D
:1015500001618161C1610C22016242614162FFF758
:1015600001FF002800D0FEE710BD0000004400404D
:10157000E0010020704700008307FF22DB0E9A4045
:101580008907090E994000280BDA0007000F083878
:10159000830808489B001818C36993430B43C36131
:1015A0007047830804489B001B1818689043084341
:1015B0001860704700ED00E000E400E070470000B4
:1015C00070B517490023CA681206120F18D18A6B2A
:1015D000154CD500134A02D51268224009E08E6BE3
:1015E00001252D072E438E6312688E6B2240AE4379
:1015F0008E63A24204D103218903884200D10123D2
:101600000A48016849084900194301600068C00799
:10161000C00F984201D0012070BD002070BD0000B5
:10162000001002400070004000180000002002403E
:1016300001090A2200075143000F4018C0B2704749
:10164000002102E00A38C0B2491C0A28FAD2090770
:10165000090E0843704770B504460068C168490622
:1016600013D40021C943C160FEF7CAFE7D2605469A
:10167000F60006E0FEF7C4FE401BB04201D903208D
:1016800070BD2068C0684006F4D5002070BD000021
:1016900030B505462C482D4987B0002411C17F2064
:1016A00008608C60CC600C61FF204C61486027486A
:1016B000FFF71CFC002802D0032000F010FB0021E3
:1016C000284600F05BFB0146684601700121284670
:1016D00000F054FB0146684641700221284600F0A4
:1016E0004DFB014668468170039401226946174804
:1016F0000494FFF77BFD002802D0042000F0EFFAED
:101700000321284600F03AFB694608750421284663
:1017100000F034FB694648750521284600F02EFB91
:10172000694688750621284600F028FB6946C87579
:10173000012205A90548FFF7F3FC002802D0052087
:1017400000F0CDFA07B030BD00280040BC010020F9
:1017500030B58BB00546142008A9087006206946EC
:10176000087000244C70059403948C70FF2004943E
:101770000130019409900694012207942648FFF74E
:1017800017FC002802D0062000F0A9FA6846047071
:1017900044700120C0070590800D09900122694620
:1017A0001D48FFF705FC002802D0072000F097FA3B
:1017B0000721284600F0CAFA04000AD00422611E5C
:1017C0001548FFF70EFB002806D0082000F087FA26
:1017D00002E01148FFF7C8FA0F4DCA21286841629C
:1017E000532141620D4A90689114084390609068BB
:1017F00049000843906048009168002C01D00143E3
:1018000000E0814391600220FEF73AFD2968FF2045
:1018100048620BB030BD0000BC0100200028004031
:10182000704710B5FEF7F2FDFFF798FD10BD000000
:1018300010B5244998B00A680320C00282438B1473
:10184000D2180A6020490A6982430A611420009074
:101850008815029001200690002440030890079408
:1018600009946846FFF78AF8002800D0FEE70F20A9
:101870000D900E940F941094002111940DA8FEF772
:1018800067FF002800D0FEE722201290012000040C
:101890001390149412A8FEF7B3FE002800D0FEE7C0
:1018A000FFF70AF87D21C900FEF740FCFFF73EFD77
:1018B0000420FFF72DFD00221146501EFEF7EEFD1D
:1018C00018B010BD00700040401002401048016880
:1018D000821511430160C1680E4A1140C160016860
:1018E0000D4A114001608168490849008160016822
:1018F0000122920491430160C168FD2212049143C8
:10190000C160002101610549C00388607047000083
:10191000001002400C40FF88F6FFF6FE00ED00E0EC
:1019200010B5818CC90707D001684A6801235B04A0
:101930009A43836A1A434A60818C890707D50168F4
:101940004A6801231B049A43C36A1A434A60818C84
:10195000490707D501684A6801239B049A43036B32
:101960001A434A60818C090707D501684A68012338
:10197000DB039A43436B1A434A60818CC90607D53F
:101980000268916801231B039943836B194391609B
:10199000818C890607D501688A6801235B039A4315
:1019A000C36B1A438A60818C490612D503685A6852
:1019B00001210905046C8A4322435A60026C8A4261
:1019C00007D10268516803235B059943436C1943AF
:1019D0005160818C090607D501684A680123DB0440
:1019E000806C9A4302434A6010BD0000F8B500269F
:1019F0000446C666FEF704FD054620680068124FDF
:101A0000000709D501212B460022490520460097F1
:101A100000F018F900280DD12068006840070BD5A8
:101A200001212B46002289052046009700F00AF983
:101A3000002801D00320F8BD202060346072A0721D
:101A400026720020F8BD0000FFFFFF01FEB504462E
:101A5000016880682269E3691043626910270026E3
:101A60001A4310430A6835466D4B1A4002430A6018
:101A700021684868032212039043E26810434860DB
:101A8000684A2168A069914201D0226A10438A689D
:101A90000B231B029A4302438A60634A206863490E
:101AA00090420AD1C8680C2108402BD004282DD0C0
:101AB000082829D00C2810D10EE05A4A90420CD1A7
:101AC000C9680320800201401CD01015091A1DD0DE
:101AD000091A19D0814200D108270220FEF70EFD15
:101AE0000190504B514922684039D81300929A42D4
:101AF00035D1002F0CD0022F0DD0042F12D0082F7B
:101B00001CD113E00027E8E70227E6E70427E4E713
:101B1000FEF7D8FE08E00868C00601D5444805E095
:101B2000444803E0FEF7EEFE002873D062685100DF
:101B30005118814202D81103814201D2012569E086
:101B4000010E06025008002330185941FEF704FB2D
:101B500003210902384A411A914259D9EEE7E26954
:101B600082422DD13B0000F09EF80906080B241993
:101B70002424241F2400019812E0FEF7B3FE0FE096
:101B800008686168C00602D548082C4A01E02C4A62
:101B900048088018FEF7CAFA86B20BE0FEF7B2FEDC
:101BA000616840004A08F4E76168012248081204AD
:101BB000EFE70125310909013007400F084327E00D
:101BC0003B0000F070F809070A0D061D06060629FD
:101BD0000600B3E7FEF776FE14E0FEF783FE11E0A1
:101BE00008686168C00602D54A08114801E011483A
:101BF0004A081018FEF79AFA81B20098C16009E00D
:101C0000FEF780FE61684A088018FEF78FFA80B2FE
:101C10002168C8602846FEBD61684A08E9E70000FF
:101C2000F369FFEF004800400044004040100240CC
:101C300000093D000024F400FFFC0F0000127A00B0
:101C40000048E801FFB581B017460E4604460A9DDC
:101C50001DE0681C1BD0002D05D0FEF7D1FB0499B8
:101C6000401AA84213D920680168FF22A13291438B
:101C70000160206881684908490081602020603443
:101C80006072A07200202072032005B0F0BD2068B1
:101C9000C1693046884304D00020B842D9D0002022
:101CA000F3E70120F9E730B47446641E2578641C1C
:101CB000AB4200D21D46635D5B00E31830BC1847A1
:101CC00002E008C8121F08C1002AFAD17047704705
:101CD000002001E001C1121F002AFBD17047074616
:101CE0000726012500F0FAF82820FEF7C9FA00F0CF
:101CF000EBF81420FEF7C4FA00F0F0F82820FEF705
:101D0000BFFA00F0E1F8FF209130FEF7B9FA0024A5
:101D1000311B28468840384209D000F0DFF8FF2008
:101D20002D30FEF7ADFA00F0CFF8C82008E000F043
:101D3000D5F86420FEF7A4FA00F0C6F8FF20913031
:101D4000FEF79EFA641C082CE2DBCBE74A0030B5B4
:101D50008B1800210A46C45C0A25303CE4B2694372
:101D60000919521C5B1C052AF5DB0348814200D986
:101D7000014688B230BD0000FFFF00004A008A180B
:101D8000815C80184078090130380143C8B270473F
:101D9000F3B5002483B00D46019426460094FFF766
:101DA000CDFB3D48FEF76CFA2DE0002E1CD03B4FDA
:101DB0003868C1698906FCD5406A0399C0B20855E4
:101DC000002E3DD000F0E2F9002844D00398396895
:101DD000005D886201980121081A641C01900028A6
:101DE00037D000F07BF836E0FEF70AFB07461DE02F
:101DF000FEF706FBC11B2A48814217D90098401CF8
:101E00000090642829D000F051F80027FF43FF22FA
:101E10003B46253223492148FFF7FCFA21493B463E
:101E2000202221391D48FFF7F5FA14E01B4800680D
:101E3000C0698006DCD519480068406A03990855D6
:101E40000398005D242806D1144901260968886298
:101E500001E000F039F8AC42A7DB00F035F80026CD
:101E6000F6433346132210490C48FFF7D3FAAAB2BF
:101E700033460A480399FFF7CDFA0B4933461D2232
:101E800014310648FFF7C6FAAC4202DA002005B06A
:101E9000F0BD0120FBE70000B80B0000E0010020CE
:101EA000102700004C0000207101002010B500F048
:101EB0002DF86420FEF7E4F900F028F8FF20F53053
:101EC000FEF7DEF910BD000010B50022082102481F
:101ED000FEF790FA10BD00000004005010B501227A
:101EE00008210248FEF786FA10BD000000040050E9
:101EF00010B50446FFF7F2FF2046FEF7C1F9FFF7E1
:101F0000E3FF1420001BFEF7BBF910BD70B51425CC
:101F100000242846FFF7ECFFAD1E641CEDB20A2C2E
:101F2000F7DB70BD1CB5FEF779FAFFF781FCFFF710
:101F3000D7FAFEF7BFFA824C80482060814841689A
:101F4000890705D50168012608221143016000E0D8
:101F500000267D4D002028706870A8702068C16838
:101F600049052FD5CA21416253214162816801226E
:101F70009202914381602068C16880221140734AB7
:101F80008918C160FEF73CFA07460CE0FEF738FA04
:101F9000C11B7D20C000814205D92168FF20486215
:101FA0000120FFF79CFE2068C0684007EED520683E
:101FB000816801229202114381602168FF204862FA
:101FC000012068702068C168C90547D5CA214162EF
:101FD000532141628168FF2201329143816021686F
:101FE000C86880221040FF388238C860FEF708FABF
:101FF00007460CE0FEF704FAC11B7D20C0008142B9
:1020000005D92168FF2048620220FFF768FE20689A
:10201000C068C007EED020688168FF2201321143FA
:1020200081602168FF204862012269464448FEF72A
:102030003AFF012201A94248FEF735FF6846417880
:102040004079814204D0012269463D48FEF72BFFCA
:1020500068464078022801D1012028702068C168B4
:1020600089052FD5CA21416253214162816801222D
:102070005202914381602068C16880221140344A35
:102080008918C160FEF7BCF907460CE0FEF7B8F905
:10209000C11B7D20C000814205D92168FF20486214
:1020A0000920FFF71CFE2068C0688007EED5206875
:1020B000816801225202114381602168FF20486239
:1020C0000120A870002E0FD06878002801D000F001
:1020D0006BF8A878002801D0FFF718FF28780028AF
:1020E00025D000F047F822E000F034F8164869687F
:1020F0000830FFF74DFE2068CA214162532141623A
:102100008268012189028A4382602068826889107E
:102110008A4382602168FF20486200F01BF80A4869
:102120000830FFF7B5FA08480830FFF711FBFEF753
:10213000B9F9FEF7CBF9FEF7D1F90BE7002800401B
:10214000BC01002000700040040000207FFBFFFF66
:102150007FFDFFFF10B50024FFF7C0FE2820FEF72B
:102160008FF8FFF7B1FE1420FEF78AF8641C322CBA
:10217000F2DB10BD70B50024034DFFF797FE641C21
:10218000AC42FADB70BD000020FD0000054A0021D2
:10219000535C834201D101207047491C1329F7D3B6
:1021A00000207047A301002010B5FFF797FE96208E
:1021B000FEF766F8FFF788FE10BD00000000000083
:1021C00000000102030406070809030406080C10B6
:1021D000182030000000000102030400FC21000868
:1021E00000000020BC01000020020008802300083D
:1021F000BC01002094040000D01C0008200580844D
:102200001E00012106104032336835396D303073BD
:1022100030367730336D303964313879303031329F
:1022200030776B7570000D0A596F752061726520EB
:10223000696E2066696E616C2074617267657420D6
:102240006D6F64650D0A21103E0D0A506C65617357
:102250006520777269746520286F722070617374CD
:102260006529207468652074696D6520616E64203D
:1022700077616B652075702064656C61792E2044F0
:102280006F6E2774207537111120102C6261636BFB
:102290007370616365206265636116302169742023
:1022A00069732069676E6F7265640D0A4578616DA8
:1022B000706C65203A0D0A243231683234B3A2358D
:1022C000B3333036B310290D0A466F726D61742036
:1022D0003A20686F75722C206D696E7574652C20BC
:1022E0007365636F6E642C207765656B6461791923
:1022F00010076F6E74682C200C3004206F66AD518F
:102300001210047965613821B12008757045766531
:102310007279FD413F1017732066726F6D20312076
:10232000746F2036353533352028302066F3636EE0
:102330006FE2200A292E20303177203D3D61115D6A
:102340003525440853657474696E670F113C562433
:102350005A100463616E3B100677206469735F2432
:10236000046E6563141404622E0081240E33343528
:1023700036373839686D737764798C310100000025
:04000005080000C12E
:00000001FF
